{
  "address": "0x4A99122384bEb5a24a2361a38811D6066A6796f3",
  "abi": [
    {
      "inputs": [],
      "stateMutability": "nonpayable",
      "type": "constructor"
    },
    {
      "inputs": [],
      "name": "AccessControlBadConfirmation",
      "type": "error"
    },
    {
      "inputs": [
        {
          "internalType": "address",
          "name": "account",
          "type": "address"
        },
        {
          "internalType": "bytes32",
          "name": "neededRole",
          "type": "bytes32"
        }
      ],
      "name": "AccessControlUnauthorizedAccount",
      "type": "error"
    },
    {
      "inputs": [
        {
          "internalType": "address",
          "name": "target",
          "type": "address"
        }
      ],
      "name": "AddressEmptyCode",
      "type": "error"
    },
    {
      "inputs": [],
      "name": "DlpAddressCannotBeChanged",
      "type": "error"
    },
    {
      "inputs": [],
      "name": "DlpAlreadyVerified",
      "type": "error"
    },
    {
      "inputs": [],
      "name": "DlpTokenNotSet",
      "type": "error"
    },
    {
      "inputs": [
        {
          "internalType": "address",
          "name": "implementation",
          "type": "address"
        }
      ],
      "name": "ERC1967InvalidImplementation",
      "type": "error"
    },
    {
      "inputs": [],
      "name": "ERC1967NonPayable",
      "type": "error"
    },
    {
      "inputs": [],
      "name": "EnforcedPause",
      "type": "error"
    },
    {
      "inputs": [],
      "name": "EpochDlpScoreAlreadySaved",
      "type": "error"
    },
    {
      "inputs": [],
      "name": "EpochNotEnded",
      "type": "error"
    },
    {
      "inputs": [],
      "name": "EpochRewardsAlreadyDistributed",
      "type": "error"
    },
    {
      "inputs": [],
      "name": "ExpectedPause",
      "type": "error"
    },
    {
      "inputs": [],
      "name": "FailedInnerCall",
      "type": "error"
    },
    {
      "inputs": [],
      "name": "InvalidAddress",
      "type": "error"
    },
    {
      "inputs": [],
      "name": "InvalidDepositAmount",
      "type": "error"
    },
    {
      "inputs": [],
      "name": "InvalidDlpId",
      "type": "error"
    },
    {
      "inputs": [],
      "name": "InvalidDlpStatus",
      "type": "error"
    },
    {
      "inputs": [],
      "name": "InvalidInitialization",
      "type": "error"
    },
    {
      "inputs": [],
      "name": "InvalidName",
      "type": "error"
    },
    {
      "inputs": [],
      "name": "InvalidParam",
      "type": "error"
    },
    {
      "inputs": [],
      "name": "LastEpochMustBeFinalised",
      "type": "error"
    },
    {
      "inputs": [],
      "name": "NotDlpOwner",
      "type": "error"
    },
    {
      "inputs": [],
      "name": "NotInitializing",
      "type": "error"
    },
    {
      "inputs": [],
      "name": "ReentrancyGuardReentrantCall",
      "type": "error"
    },
    {
      "inputs": [],
      "name": "TransferFailed",
      "type": "error"
    },
    {
      "inputs": [],
      "name": "UUPSUnauthorizedCallContext",
      "type": "error"
    },
    {
      "inputs": [
        {
          "internalType": "bytes32",
          "name": "slot",
          "type": "bytes32"
        }
      ],
      "name": "UUPSUnsupportedProxiableUUID",
      "type": "error"
    },
    {
      "anonymous": false,
      "inputs": [
        {
          "indexed": true,
          "internalType": "uint256",
          "name": "dlpId",
          "type": "uint256"
        },
        {
          "indexed": false,
          "internalType": "address",
          "name": "tokenAddress",
          "type": "address"
        }
      ],
      "name": "DLPTokenUpdated",
      "type": "event"
    },
    {
      "anonymous": false,
      "inputs": [
        {
          "indexed": true,
          "internalType": "uint256",
          "name": "dlpId",
          "type": "uint256"
        },
        {
          "indexed": true,
          "internalType": "address",
          "name": "dlpAddress",
          "type": "address"
        },
        {
          "indexed": false,
          "internalType": "address",
          "name": "ownerAddress",
          "type": "address"
        },
        {
          "indexed": false,
          "internalType": "address",
          "name": "treasuryAddress",
          "type": "address"
        },
        {
          "indexed": false,
          "internalType": "string",
          "name": "name",
          "type": "string"
        },
        {
          "indexed": false,
          "internalType": "string",
          "name": "iconUrl",
          "type": "string"
        },
        {
          "indexed": false,
          "internalType": "string",
          "name": "website",
          "type": "string"
        },
        {
          "indexed": false,
          "internalType": "string",
          "name": "metadata",
          "type": "string"
        }
      ],
      "name": "DlpRegistered",
      "type": "event"
    },
    {
      "anonymous": false,
      "inputs": [
        {
          "indexed": false,
          "internalType": "uint256",
          "name": "newDlpRegistrationDepositAmount",
          "type": "uint256"
        }
      ],
      "name": "DlpRegistrationDepositAmountUpdated",
      "type": "event"
    },
    {
      "anonymous": false,
      "inputs": [
        {
          "indexed": true,
          "internalType": "uint256",
          "name": "dlpId",
          "type": "uint256"
        },
        {
          "indexed": false,
          "internalType": "enum IDLPRegistry.DlpStatus",
          "name": "newStatus",
          "type": "uint8"
        }
      ],
      "name": "DlpStatusUpdated",
      "type": "event"
    },
    {
      "anonymous": false,
      "inputs": [
        {
          "indexed": false,
          "internalType": "uint256",
          "name": "newDlpSubEligibilityThreshold",
          "type": "uint256"
        }
      ],
      "name": "DlpSubEligibilityThresholdUpdated",
      "type": "event"
    },
    {
      "anonymous": false,
      "inputs": [
        {
          "indexed": true,
          "internalType": "uint256",
          "name": "dlpId",
          "type": "uint256"
        },
        {
          "indexed": true,
          "internalType": "address",
          "name": "dlpAddress",
          "type": "address"
        },
        {
          "indexed": false,
          "internalType": "address",
          "name": "ownerAddress",
          "type": "address"
        },
        {
          "indexed": false,
          "internalType": "address",
          "name": "treasuryAddress",
          "type": "address"
        },
        {
          "indexed": false,
          "internalType": "string",
          "name": "name",
          "type": "string"
        },
        {
          "indexed": false,
          "internalType": "string",
          "name": "iconUrl",
          "type": "string"
        },
        {
          "indexed": false,
          "internalType": "string",
          "name": "website",
          "type": "string"
        },
        {
          "indexed": false,
          "internalType": "string",
          "name": "metadata",
          "type": "string"
        }
      ],
      "name": "DlpUpdated",
      "type": "event"
    },
    {
      "anonymous": false,
      "inputs": [
        {
          "indexed": true,
          "internalType": "uint256",
          "name": "dlpId",
          "type": "uint256"
        },
        {
          "indexed": false,
          "internalType": "bool",
          "name": "verified",
          "type": "bool"
        }
      ],
      "name": "DlpVerificationUpdated",
      "type": "event"
    },
    {
      "anonymous": false,
      "inputs": [
        {
          "indexed": false,
          "internalType": "uint64",
          "name": "version",
          "type": "uint64"
        }
      ],
      "name": "Initialized",
      "type": "event"
    },
    {
      "anonymous": false,
      "inputs": [
        {
          "indexed": false,
          "internalType": "address",
          "name": "account",
          "type": "address"
        }
      ],
      "name": "Paused",
      "type": "event"
    },
    {
      "anonymous": false,
      "inputs": [
        {
          "indexed": true,
          "internalType": "bytes32",
          "name": "role",
          "type": "bytes32"
        },
        {
          "indexed": true,
          "internalType": "bytes32",
          "name": "previousAdminRole",
          "type": "bytes32"
        },
        {
          "indexed": true,
          "internalType": "bytes32",
          "name": "newAdminRole",
          "type": "bytes32"
        }
      ],
      "name": "RoleAdminChanged",
      "type": "event"
    },
    {
      "anonymous": false,
      "inputs": [
        {
          "indexed": true,
          "internalType": "bytes32",
          "name": "role",
          "type": "bytes32"
        },
        {
          "indexed": true,
          "internalType": "address",
          "name": "account",
          "type": "address"
        },
        {
          "indexed": true,
          "internalType": "address",
          "name": "sender",
          "type": "address"
        }
      ],
      "name": "RoleGranted",
      "type": "event"
    },
    {
      "anonymous": false,
      "inputs": [
        {
          "indexed": true,
          "internalType": "bytes32",
          "name": "role",
          "type": "bytes32"
        },
        {
          "indexed": true,
          "internalType": "address",
          "name": "account",
          "type": "address"
        },
        {
          "indexed": true,
          "internalType": "address",
          "name": "sender",
          "type": "address"
        }
      ],
      "name": "RoleRevoked",
      "type": "event"
    },
    {
      "anonymous": false,
      "inputs": [
        {
          "indexed": false,
          "internalType": "address",
          "name": "account",
          "type": "address"
        }
      ],
      "name": "Unpaused",
      "type": "event"
    },
    {
      "anonymous": false,
      "inputs": [
        {
          "indexed": true,
          "internalType": "address",
          "name": "implementation",
          "type": "address"
        }
      ],
      "name": "Upgraded",
      "type": "event"
    },
    {
      "inputs": [],
      "name": "DEFAULT_ADMIN_ROLE",
      "outputs": [
        {
          "internalType": "bytes32",
          "name": "",
          "type": "bytes32"
        }
      ],
      "stateMutability": "view",
      "type": "function"
    },
    {
      "inputs": [],
      "name": "MAINTAINER_ROLE",
      "outputs": [
        {
          "internalType": "bytes32",
          "name": "",
          "type": "bytes32"
        }
      ],
      "stateMutability": "view",
      "type": "function"
    },
    {
      "inputs": [],
      "name": "UPGRADE_INTERFACE_VERSION",
      "outputs": [
        {
          "internalType": "string",
          "name": "",
          "type": "string"
        }
      ],
      "stateMutability": "view",
      "type": "function"
    },
    {
      "inputs": [
        {
          "internalType": "uint256",
          "name": "dlpId",
          "type": "uint256"
        }
      ],
      "name": "deregisterDlp",
      "outputs": [],
      "stateMutability": "nonpayable",
      "type": "function"
    },
    {
      "inputs": [
        {
          "internalType": "address",
          "name": "dlpAddress",
          "type": "address"
        }
      ],
      "name": "dlpIds",
      "outputs": [
        {
          "internalType": "uint256",
          "name": "dlpId",
          "type": "uint256"
        }
      ],
      "stateMutability": "view",
      "type": "function"
    },
    {
      "inputs": [
        {
          "internalType": "string",
          "name": "dlpName",
          "type": "string"
        }
      ],
      "name": "dlpNameToId",
      "outputs": [
        {
          "internalType": "uint256",
          "name": "dlpId",
          "type": "uint256"
        }
      ],
      "stateMutability": "view",
      "type": "function"
    },
    {
      "inputs": [],
      "name": "dlpRegistrationDepositAmount",
      "outputs": [
        {
          "internalType": "uint256",
          "name": "",
          "type": "uint256"
        }
      ],
      "stateMutability": "view",
      "type": "function"
    },
    {
      "inputs": [
        {
          "internalType": "uint256",
          "name": "dlpId",
          "type": "uint256"
        }
      ],
      "name": "dlps",
      "outputs": [
        {
          "components": [
            {
              "internalType": "uint256",
              "name": "id",
              "type": "uint256"
            },
            {
              "internalType": "address",
              "name": "dlpAddress",
              "type": "address"
            },
            {
              "internalType": "address",
              "name": "ownerAddress",
              "type": "address"
            },
            {
              "internalType": "address",
              "name": "tokenAddress",
              "type": "address"
            },
            {
              "internalType": "address",
              "name": "treasuryAddress",
              "type": "address"
            },
            {
              "internalType": "string",
              "name": "name",
              "type": "string"
            },
            {
              "internalType": "string",
              "name": "iconUrl",
              "type": "string"
            },
            {
              "internalType": "string",
              "name": "website",
              "type": "string"
            },
            {
              "internalType": "string",
              "name": "metadata",
              "type": "string"
            },
            {
              "internalType": "uint256",
              "name": "registrationBlockNumber",
              "type": "uint256"
            },
            {
              "internalType": "uint256",
              "name": "depositAmount",
              "type": "uint256"
            },
            {
              "internalType": "enum IDLPRegistry.DlpStatus",
              "name": "status",
              "type": "uint8"
            },
            {
              "internalType": "bool",
              "name": "isVerified",
              "type": "bool"
            }
          ],
          "internalType": "struct IDLPRegistry.DlpInfo",
          "name": "",
          "type": "tuple"
        }
      ],
      "stateMutability": "view",
      "type": "function"
    },
    {
      "inputs": [
        {
          "internalType": "address",
          "name": "dlpAddress",
          "type": "address"
        }
      ],
      "name": "dlpsByAddress",
      "outputs": [
        {
          "components": [
            {
              "internalType": "uint256",
              "name": "id",
              "type": "uint256"
            },
            {
              "internalType": "address",
              "name": "dlpAddress",
              "type": "address"
            },
            {
              "internalType": "address",
              "name": "ownerAddress",
              "type": "address"
            },
            {
              "internalType": "address",
              "name": "tokenAddress",
              "type": "address"
            },
            {
              "internalType": "address",
              "name": "treasuryAddress",
              "type": "address"
            },
            {
              "internalType": "string",
              "name": "name",
              "type": "string"
            },
            {
              "internalType": "string",
              "name": "iconUrl",
              "type": "string"
            },
            {
              "internalType": "string",
              "name": "website",
              "type": "string"
            },
            {
              "internalType": "string",
              "name": "metadata",
              "type": "string"
            },
            {
              "internalType": "uint256",
              "name": "registrationBlockNumber",
              "type": "uint256"
            },
            {
              "internalType": "uint256",
              "name": "depositAmount",
              "type": "uint256"
            },
            {
              "internalType": "enum IDLPRegistry.DlpStatus",
              "name": "status",
              "type": "uint8"
            },
            {
              "internalType": "bool",
              "name": "isVerified",
              "type": "bool"
            }
          ],
          "internalType": "struct IDLPRegistry.DlpInfo",
          "name": "",
          "type": "tuple"
        }
      ],
      "stateMutability": "view",
      "type": "function"
    },
    {
      "inputs": [
        {
          "internalType": "string",
          "name": "dlpName",
          "type": "string"
        }
      ],
      "name": "dlpsByName",
      "outputs": [
        {
          "components": [
            {
              "internalType": "uint256",
              "name": "id",
              "type": "uint256"
            },
            {
              "internalType": "address",
              "name": "dlpAddress",
              "type": "address"
            },
            {
              "internalType": "address",
              "name": "ownerAddress",
              "type": "address"
            },
            {
              "internalType": "address",
              "name": "tokenAddress",
              "type": "address"
            },
            {
              "internalType": "address",
              "name": "treasuryAddress",
              "type": "address"
            },
            {
              "internalType": "string",
              "name": "name",
              "type": "string"
            },
            {
              "internalType": "string",
              "name": "iconUrl",
              "type": "string"
            },
            {
              "internalType": "string",
              "name": "website",
              "type": "string"
            },
            {
              "internalType": "string",
              "name": "metadata",
              "type": "string"
            },
            {
              "internalType": "uint256",
              "name": "registrationBlockNumber",
              "type": "uint256"
            },
            {
              "internalType": "uint256",
              "name": "depositAmount",
              "type": "uint256"
            },
            {
              "internalType": "enum IDLPRegistry.DlpStatus",
              "name": "status",
              "type": "uint8"
            },
            {
              "internalType": "bool",
              "name": "isVerified",
              "type": "bool"
            }
          ],
          "internalType": "struct IDLPRegistry.DlpInfo",
          "name": "",
          "type": "tuple"
        }
      ],
      "stateMutability": "view",
      "type": "function"
    },
    {
      "inputs": [],
      "name": "dlpsCount",
      "outputs": [
        {
          "internalType": "uint256",
          "name": "",
          "type": "uint256"
        }
      ],
      "stateMutability": "view",
      "type": "function"
    },
    {
      "inputs": [],
      "name": "eligibleDlpsLimit",
      "outputs": [
        {
          "internalType": "uint256",
          "name": "",
          "type": "uint256"
        }
      ],
      "stateMutability": "view",
      "type": "function"
    },
    {
      "inputs": [
        {
          "internalType": "uint256",
          "name": "index",
          "type": "uint256"
        }
      ],
      "name": "eligibleDlpsListAt",
      "outputs": [
        {
          "internalType": "uint256",
          "name": "",
          "type": "uint256"
        }
      ],
      "stateMutability": "view",
      "type": "function"
    },
    {
      "inputs": [],
      "name": "eligibleDlpsListCount",
      "outputs": [
        {
          "internalType": "uint256",
          "name": "",
          "type": "uint256"
        }
      ],
      "stateMutability": "view",
      "type": "function"
    },
    {
      "inputs": [],
      "name": "eligibleDlpsListValues",
      "outputs": [
        {
          "internalType": "uint256[]",
          "name": "",
          "type": "uint256[]"
        }
      ],
      "stateMutability": "view",
      "type": "function"
    },
    {
      "inputs": [
        {
          "internalType": "bytes32",
          "name": "role",
          "type": "bytes32"
        }
      ],
      "name": "getRoleAdmin",
      "outputs": [
        {
          "internalType": "bytes32",
          "name": "",
          "type": "bytes32"
        }
      ],
      "stateMutability": "view",
      "type": "function"
    },
    {
      "inputs": [
        {
          "internalType": "bytes32",
          "name": "role",
          "type": "bytes32"
        },
        {
          "internalType": "address",
          "name": "account",
          "type": "address"
        }
      ],
      "name": "grantRole",
      "outputs": [],
      "stateMutability": "nonpayable",
      "type": "function"
    },
    {
      "inputs": [
        {
          "internalType": "bytes32",
          "name": "role",
          "type": "bytes32"
        },
        {
          "internalType": "address",
          "name": "account",
          "type": "address"
        }
      ],
      "name": "hasRole",
      "outputs": [
        {
          "internalType": "bool",
          "name": "",
          "type": "bool"
        }
      ],
      "stateMutability": "view",
      "type": "function"
    },
    {
      "inputs": [
        {
          "internalType": "address",
          "name": "ownerAddress",
          "type": "address"
        }
      ],
      "name": "initialize",
      "outputs": [],
      "stateMutability": "nonpayable",
      "type": "function"
    },
    {
      "inputs": [],
      "name": "pause",
      "outputs": [],
      "stateMutability": "nonpayable",
      "type": "function"
    },
    {
      "inputs": [],
      "name": "paused",
      "outputs": [
        {
          "internalType": "bool",
          "name": "",
          "type": "bool"
        }
      ],
      "stateMutability": "view",
      "type": "function"
    },
    {
      "inputs": [],
      "name": "proxiableUUID",
      "outputs": [
        {
          "internalType": "bytes32",
          "name": "",
          "type": "bytes32"
        }
      ],
      "stateMutability": "view",
      "type": "function"
    },
    {
      "inputs": [
        {
          "components": [
            {
              "internalType": "address",
              "name": "dlpAddress",
              "type": "address"
            },
            {
              "internalType": "address",
              "name": "ownerAddress",
              "type": "address"
            },
            {
              "internalType": "address payable",
              "name": "treasuryAddress",
              "type": "address"
            },
            {
              "internalType": "string",
              "name": "name",
              "type": "string"
            },
            {
              "internalType": "string",
              "name": "iconUrl",
              "type": "string"
            },
            {
              "internalType": "string",
              "name": "website",
              "type": "string"
            },
            {
              "internalType": "string",
              "name": "metadata",
              "type": "string"
            }
          ],
          "internalType": "struct IDLPRegistry.DlpRegistration",
          "name": "registrationInfo",
          "type": "tuple"
        }
      ],
      "name": "registerDlp",
      "outputs": [],
      "stateMutability": "payable",
      "type": "function"
    },
    {
      "inputs": [
        {
          "internalType": "bytes32",
          "name": "role",
          "type": "bytes32"
        },
        {
          "internalType": "address",
          "name": "callerConfirmation",
          "type": "address"
        }
      ],
      "name": "renounceRole",
      "outputs": [],
      "stateMutability": "nonpayable",
      "type": "function"
    },
    {
      "inputs": [
        {
          "internalType": "bytes32",
          "name": "role",
          "type": "bytes32"
        },
        {
          "internalType": "address",
          "name": "account",
          "type": "address"
        }
      ],
      "name": "revokeRole",
      "outputs": [],
      "stateMutability": "nonpayable",
      "type": "function"
    },
    {
      "inputs": [
        {
          "internalType": "bytes4",
          "name": "interfaceId",
          "type": "bytes4"
        }
      ],
      "name": "supportsInterface",
      "outputs": [
        {
          "internalType": "bool",
          "name": "",
          "type": "bool"
        }
      ],
      "stateMutability": "view",
      "type": "function"
    },
    {
      "inputs": [],
      "name": "treasury",
      "outputs": [
        {
          "internalType": "contract ITreasury",
          "name": "",
          "type": "address"
        }
      ],
      "stateMutability": "view",
      "type": "function"
    },
    {
      "inputs": [],
      "name": "unpause",
      "outputs": [],
      "stateMutability": "nonpayable",
      "type": "function"
    },
    {
      "inputs": [
        {
          "internalType": "uint256",
          "name": "dlpId",
          "type": "uint256"
        },
        {
          "components": [
            {
              "internalType": "address",
              "name": "dlpAddress",
              "type": "address"
            },
            {
              "internalType": "address",
              "name": "ownerAddress",
              "type": "address"
            },
            {
              "internalType": "address payable",
              "name": "treasuryAddress",
              "type": "address"
            },
            {
              "internalType": "string",
              "name": "name",
              "type": "string"
            },
            {
              "internalType": "string",
              "name": "iconUrl",
              "type": "string"
            },
            {
              "internalType": "string",
              "name": "website",
              "type": "string"
            },
            {
              "internalType": "string",
              "name": "metadata",
              "type": "string"
            }
          ],
          "internalType": "struct IDLPRegistry.DlpRegistration",
          "name": "dlpUpdateInfo",
          "type": "tuple"
        }
      ],
      "name": "updateDlp",
      "outputs": [],
      "stateMutability": "nonpayable",
      "type": "function"
    },
    {
      "inputs": [
        {
          "internalType": "uint256",
          "name": "newDlpRegistrationDepositAmount",
          "type": "uint256"
        }
      ],
      "name": "updateDlpRegistrationDepositAmount",
      "outputs": [],
      "stateMutability": "nonpayable",
      "type": "function"
    },
    {
      "inputs": [
        {
          "internalType": "uint256",
          "name": "dlpId",
          "type": "uint256"
        },
        {
          "internalType": "address",
          "name": "tokenAddress",
          "type": "address"
        }
      ],
      "name": "updateDlpToken",
      "outputs": [],
      "stateMutability": "nonpayable",
      "type": "function"
    },
    {
      "inputs": [
        {
          "internalType": "uint256",
          "name": "dlpId",
          "type": "uint256"
        },
        {
          "internalType": "bool",
          "name": "isVerified",
          "type": "bool"
        }
      ],
      "name": "updateDlpVerification",
      "outputs": [],
      "stateMutability": "nonpayable",
      "type": "function"
    },
    {
      "inputs": [
        {
          "internalType": "address",
          "name": "newTreasuryAddress",
          "type": "address"
        }
      ],
      "name": "updateTreasury",
      "outputs": [],
      "stateMutability": "nonpayable",
      "type": "function"
    },
    {
      "inputs": [
        {
          "internalType": "address",
          "name": "newVanaEpochAddress",
          "type": "address"
        }
      ],
      "name": "updateVanaEpoch",
      "outputs": [],
      "stateMutability": "nonpayable",
      "type": "function"
    },
    {
      "inputs": [
        {
          "internalType": "address",
          "name": "newImplementation",
          "type": "address"
        },
        {
          "internalType": "bytes",
          "name": "data",
          "type": "bytes"
        }
      ],
      "name": "upgradeToAndCall",
      "outputs": [],
      "stateMutability": "payable",
      "type": "function"
    },
    {
      "inputs": [],
      "name": "vanaEpoch",
      "outputs": [
        {
          "internalType": "contract IVanaEpoch",
          "name": "",
          "type": "address"
        }
      ],
      "stateMutability": "view",
      "type": "function"
    },
    {
      "inputs": [],
      "name": "version",
      "outputs": [
        {
          "internalType": "uint256",
          "name": "",
          "type": "uint256"
        }
      ],
      "stateMutability": "pure",
      "type": "function"
    }
  ],
  "transactionHash": "0x09bc390235ece6498607c03166fca2f62b169f2de5e96c32013fab7dddc825dd",
  "args": [],
  "numDeployments": 1,
  "solcInputHash": "066dac547209bb3b6c9cb05565323536",
  "bytecode": "0x60a0604052306080523480156200001557600080fd5b506200002062000026565b620000da565b7ff0c57e16840df040f15088dc2f81fe391c3923bec73e23a9662efc9c229c6a00805468010000000000000000900460ff1615620000775760405163f92ee8a960e01b815260040160405180910390fd5b80546001600160401b0390811614620000d75780546001600160401b0319166001600160401b0390811782556040519081527fc7f505b2f371ae2175ee4913f4499e1f2633a7b5936321eed1cdaeb6115181d29060200160405180910390a15b50565b60805161313662000104600039600081816118c9015281816118f20152611a3801526131366000f3fe6080604052600436106101aa5760003560e01c806301610230146101af57806301ffc9a7146101e557806303a229f6146102155780632393526f14610237578063248a9ca3146102655780632963d5c5146102855780632f2ff15d1461029b57806336568abe146102bd5780633f4ba83a146102dd578063439b3756146102f2578063467bb5451461031f5780634f1ef2861461033f57806352d1902d1461035257806354fd4d50146103675780635c975abb1461037b57806361d027b31461039057806368ed41ed146103b05780636d352711146103c657806373801a88146103db578063776ddebc146103fb5780637f51bb1f146104335780638456cb5914610453578063858d9d541461046857806391d14854146104885780639d4def70146104a85780639dc6fe5a146104bb5780639e8e6717146104db578063a217fddf146104f1578063ad3cb1cc14610506578063b4fcea1d14610544578063b89ac73b14610564578063c06020b014610584578063c40e30b2146105b1578063c4d66de8146105d1578063d547741f146105f1578063ea83e47b14610611578063f874225414610631575b600080fd5b3480156101bb57600080fd5b506000546101cf906001600160a01b031681565b6040516101dc91906126d1565b60405180910390f35b3480156101f157600080fd5b506102056102003660046126e5565b610653565b60405190151581526020016101dc565b34801561022157600080fd5b5061022a61068a565b6040516101dc919061270f565b34801561024357600080fd5b50610257610252366004612753565b61069b565b6040519081526020016101dc565b34801561027157600080fd5b50610257610280366004612753565b6106a8565b34801561029157600080fd5b5061025760025481565b3480156102a757600080fd5b506102bb6102b6366004612781565b6106c8565b005b3480156102c957600080fd5b506102bb6102d8366004612781565b6106ea565b3480156102e957600080fd5b506102bb610722565b3480156102fe57600080fd5b5061031261030d3660046127b1565b610745565b6040516101dc9190612863565b34801561032b57600080fd5b506102bb61033a3660046127b1565b61076f565b6102bb61034d366004612a3f565b6107aa565b34801561035e57600080fd5b506102576107c9565b34801561037357600080fd5b506001610257565b34801561038757600080fd5b506102056107e6565b34801561039c57600080fd5b506001546101cf906001600160a01b031681565b3480156103bc57600080fd5b5061025760035481565b3480156103d257600080fd5b506102576107fb565b3480156103e757600080fd5b506102bb6103f6366004612ab0565b610807565b34801561040757600080fd5b50610257610416366004612ad5565b805160208183018101805160068252928201919093012091525481565b34801561043f57600080fd5b506102bb61044e3660046127b1565b61095c565b34801561045f57600080fd5b506102bb610997565b34801561047457600080fd5b506102bb610483366004612781565b6109b7565b34801561049457600080fd5b506102056104a3366004612781565b610a3b565b6102bb6104b6366004612b3d565b610a71565b3480156104c757600080fd5b506103126104d6366004612b71565b610aeb565b3480156104e757600080fd5b5061025760075481565b3480156104fd57600080fd5b50610257600081565b34801561051257600080fd5b50610537604051806040016040528060058152602001640352e302e360dc1b81525081565b6040516101dc9190612be2565b34801561055057600080fd5b506102bb61055f366004612753565b610b23565b34801561057057600080fd5b506102bb61057f366004612753565b610da7565b34801561059057600080fd5b5061025761059f3660046127b1565b60056020526000908152604090205481565b3480156105bd57600080fd5b506102bb6105cc366004612bf5565b610dfb565b3480156105dd57600080fd5b506102bb6105ec3660046127b1565b611242565b3480156105fd57600080fd5b506102bb61060c366004612781565b611377565b34801561061d57600080fd5b5061031261062c366004612753565b611393565b34801561063d57600080fd5b506102576000805160206130e183398151915281565b60006001600160e01b03198216637965db0b60e01b148061068457506301ffc9a760e01b6001600160e01b03198316145b92915050565b60606106966008611707565b905090565b6000610684600883611714565b6000806106b3611720565b60009384526020525050604090206001015490565b6106d1826106a8565b6106da81611744565b6106e4838361174e565b50505050565b6001600160a01b03811633146107135760405163334bd91960e11b815260040160405180910390fd5b61071d82826117ef565b505050565b6000805160206130e183398151915261073a81611744565b610742611867565b50565b61074d612634565b6001600160a01b03821660009081526005602052604090205461068490611393565b6000805160206130e183398151915261078781611744565b50600080546001600160a01b0319166001600160a01b0392909216919091179055565b6107b26118be565b6107bb82611965565b6107c58282611970565b5050565b60006107d3611a2d565b506000805160206130a183398151915290565b6000806107f1611a76565b5460ff1692915050565b60006106966008611a9a565b6000805160206130e183398151915261081f81611744565b600083815260046020526040812090600b82015460ff1660038111156108475761084761282b565b0361086557604051636e1ed6c560e11b815260040160405180910390fd5b6003600b82015460ff1660038111156108805761088061282b565b0361089e57604051636e1ed6c560e11b815260040160405180910390fd5b82151581600b0160019054906101000a900460ff161515036108d357604051630a24f34360e41b815260040160405180910390fd5b60038101546001600160a01b03166108fe576040516336c7e4e760e21b815260040160405180910390fd5b600b810180548415156101000261ff001990911617905560405184907fe11c4b38855d86735092f8c7e790a86765bacd0fe47618b41eb0c5142aea69c89061094b90861515815260200190565b60405180910390a26106e481611aa4565b6000805160206130e183398151915261097481611744565b50600180546001600160a01b0319166001600160a01b0392909216919091179055565b6000805160206130e18339815191526109af81611744565b610742611bc0565b6000805160206130e18339815191526109cf81611744565b600083815260046020526040908190206003810180546001600160a01b0319166001600160a01b038616179055905184907ffd21037a654ca5971e31883bdb781b1d8044dea351c92871e1e3b2bd7527084490610a2d9086906126d1565b60405180910390a250505050565b600080610a46611720565b6000948552602090815260408086206001600160a01b03959095168652939052505090205460ff1690565b610a79611c07565b610a81611c2d565b60008054604080516376bc986960e01b815290516001600160a01b03909216926376bc98699260048084019382900301818387803b158015610ac257600080fd5b505af1158015610ad6573d6000803e3d6000fd5b50505050610ae381611c63565b6107426120fc565b610af3612634565b610b1c60068484604051610b08929190612c31565b908152602001604051809103902054611393565b9392505050565b610b2b611c07565b610b33611c2d565b60008181526004602052604090206002015481906001600160a01b03163314610b6f57604051633387d70760e01b815260040160405180910390fd5b60008054604080516376bc986960e01b815290516001600160a01b03909216926376bc98699260048084019382900301818387803b158015610bb057600080fd5b505af1158015610bc4573d6000803e3d6000fd5b5050505060008060009054906101000a90046001600160a01b03166001600160a01b031663916e1c576040518163ffffffff1660e01b8152600401602060405180830381865afa158015610c1c573d6000803e3d6000fd5b505050506040513d601f19601f82011682018060405250810190610c409190612c41565b9050600181118015610cd257506000546001600160a01b031663c6b61e4c610c69600184612c70565b6040518263ffffffff1660e01b8152600401610c8791815260200190565b600060405180830381865afa158015610ca4573d6000803e3d6000fd5b505050506040513d6000823e601f3d908101601f19168201604052610ccc9190810190612c83565b60600151155b15610cf057604051630a5564fb60e41b815260040160405180910390fd5b600083815260046020526040812090600b82015460ff166003811115610d1857610d1861282b565b1480610d3c57506003600b82015460ff166003811115610d3a57610d3a61282b565b145b15610d5a57604051636e1ed6c560e11b815260040160405180910390fd5b600b8101805460ff19166003179055610d7460088561210d565b50836000805160206130c18339815191526003604051610d949190612d86565b60405180910390a25050506107426120fc565b6000805160206130e1833981519152610dbf81611744565b60028290556040518281527fe082917d1df24c089c98cea7cf69a4e75e16c9832994eae12359ac6dc8f050cd9060200160405180910390a15050565b610e03611c07565b610e0b611c2d565b60008281526004602052604090206002015482906001600160a01b03163314610e4757604051633387d70760e01b815260040160405180910390fd5b60008054604080516376bc986960e01b815290516001600160a01b03909216926376bc98699260048084019382900301818387803b158015610e8857600080fd5b505af1158015610e9c573d6000803e3d6000fd5b5060009250610eb491505060408401602085016127b1565b6001600160a01b03161480610ee157506000610ed660608401604085016127b1565b6001600160a01b0316145b15610eff5760405163e6c4247b60e01b815260040160405180910390fd5b600083815260046020908152604090912090610f1d908401846127b1565b60018201546001600160a01b03908116911614610f4d57604051630cd0dd4360e11b815260040160405180910390fd5b610f5d60408401602085016127b1565b6002820180546001600160a01b0319166001600160a01b0392909216919091179055610f8f60608401604085016127b1565b6004820180546001600160a01b0319166001600160a01b0392909216919091179055604051610fc2906005830190612e3b565b604051908190039020610fd86060850185612e47565b604051610fe6929190612c31565b6040518091039020146110e75760066110026060850185612e47565b604051611010929190612c31565b908152602001604051809103902054600014158061107557506110736110396060850185612e47565b8080601f01602080910402602001604051908101604052809392919081815260200183838082843760009201919091525061211992505050565b155b156110935760405163430f13b360e01b815260040160405180910390fd5b60006006826005016040516110a89190612e3b565b908152604051908190036020019020558360066110c86060860186612e47565b6040516110d6929190612c31565b908152604051908190036020019020555b6110f46060840184612e47565b6005830191611104919083612edc565b506111126080840184612e47565b6006830191611122919083612edc565b5061113060a0840184612e47565b6007830191611140919083612edc565b5061114e60c0840184612e47565b600883019161115e919083612edc565b50836005600061117160208701876127b1565b6001600160a01b031681526020808201929092526040016000209190915561119b908401846127b1565b6001600160a01b0316847f722508f612f32b765b27ca15934c5c89806cdecd1ecd4b83631a9d12d15ddac36111d660408701602088016127b1565b6111e660608801604089016127b1565b6111f36060890189612e47565b61120060808b018b612e47565b61120d60a08d018d612e47565b61121a60c08f018f612e47565b6040516112309a99989796959493929190612fc4565b60405180910390a350506107c56120fc565b600061124c612175565b805490915060ff600160401b82041615906001600160401b03166000811580156112735750825b90506000826001600160401b0316600114801561128f5750303b155b90508115801561129d575080155b156112bb5760405163f92ee8a960e01b815260040160405180910390fd5b84546001600160401b031916600117855583156112e457845460ff60401b1916600160401b1785555b6112ec612199565b6112f4612199565b6112fc6121a1565b6113046121b1565b61130f60008761174e565b506113286000805160206130e18339815191528761174e565b50831561136f57845460ff60401b19168555604051600181527fc7f505b2f371ae2175ee4913f4499e1f2633a7b5936321eed1cdaeb6115181d29060200160405180910390a15b505050505050565b611380826106a8565b61138981611744565b6106e483836117ef565b61139b612634565b60008281526004602081815260408084208454825163916e1c5760e01b815292519195946001600160a01b039091169363916e1c5793808301939192908290030181865afa1580156113f1573d6000803e3d6000fd5b505050506040513d601f19601f820116820180604052508101906114159190612c41565b604080516101a0810182528454815260018501546001600160a01b039081166020830152600286015481169282019290925260038501548216606082015260048501549091166080820152600584018054929350909160a08301919061147a90612d94565b80601f01602080910402602001604051908101604052809291908181526020018280546114a690612d94565b80156114f35780601f106114c8576101008083540402835291602001916114f3565b820191906000526020600020905b8154815290600101906020018083116114d657829003601f168201915b5050505050815260200183600601805461150c90612d94565b80601f016020809104026020016040519081016040528092919081815260200182805461153890612d94565b80156115855780601f1061155a57610100808354040283529160200191611585565b820191906000526020600020905b81548152906001019060200180831161156857829003601f168201915b5050505050815260200183600701805461159e90612d94565b80601f01602080910402602001604051908101604052809291908181526020018280546115ca90612d94565b80156116175780601f106115ec57610100808354040283529160200191611617565b820191906000526020600020905b8154815290600101906020018083116115fa57829003601f168201915b5050505050815260200183600801805461163090612d94565b80601f016020809104026020016040519081016040528092919081815260200182805461165c90612d94565b80156116a95780601f1061167e576101008083540402835291602001916116a9565b820191906000526020600020905b81548152906001019060200180831161168c57829003601f168201915b505050918352505060098401546020820152600a8401546040820152600b84015460609091019060ff1660038111156116e4576116e461282b565b8152600b9093015460ff6101009091041615156020909301929092525092915050565b60606000610b1c836121c1565b6000610b1c838361221d565b7f02dd7bc7dec4dceedda775e58dd541e08a116c6c53815c0bd028192f7b62680090565b6107428133612247565b600080611759611720565b90506117658484610a3b565b6117e5576000848152602082815260408083206001600160a01b03871684529091529020805460ff1916600117905561179b3390565b6001600160a01b0316836001600160a01b0316857f2f8788117e7eff1d82e926ec794901d17c78024a50270940304540a733656f0d60405160405180910390a46001915050610684565b6000915050610684565b6000806117fa611720565b90506118068484610a3b565b156117e5576000848152602082815260408083206001600160a01b0387168085529252808320805460ff1916905551339287917ff6391f5c32d9c69d2a47ea670b442974b53935d1edc7fd64eb21e047a839171b9190a46001915050610684565b61186f612280565b6000611879611a76565b805460ff1916815590507f5db9ee0a495bf2e6ff9c91a7834c1ba4fdd244a5e8aa4e537bd38aeae4b073aa335b6040516118b391906126d1565b60405180910390a150565b306001600160a01b037f000000000000000000000000000000000000000000000000000000000000000016148061194557507f00000000000000000000000000000000000000000000000000000000000000006001600160a01b03166119396000805160206130a1833981519152546001600160a01b031690565b6001600160a01b031614155b156119635760405163703e46dd60e11b815260040160405180910390fd5b565b60006107c581611744565b816001600160a01b03166352d1902d6040518163ffffffff1660e01b8152600401602060405180830381865afa9250505080156119ca575060408051601f3d908101601f191682019092526119c791810190612c41565b60015b6119f25781604051634c9c8ce360e01b81526004016119e991906126d1565b60405180910390fd5b6000805160206130a18339815191528114611a2357604051632a87526960e21b8152600481018290526024016119e9565b61071d83836122a5565b306001600160a01b037f000000000000000000000000000000000000000000000000000000000000000016146119635760405163703e46dd60e11b815260040160405180910390fd5b7fcd5ed15c6e187e77e9aee88184c21f4f2182ab5827cb3b7e07fbedcd63f0330090565b6000610684825490565b6001600b82015460ff166003811115611abf57611abf61282b565b03611b3857600b810154610100900460ff168015611ae9575060038101546001600160a01b031615155b1561074257600b8101805460ff191660021790558054611b0b906008906122fb565b5080546040516000805160206130c183398151915290611b2d90600290612d86565b60405180910390a250565b6002600b82015460ff166003811115611b5357611b5361282b565b0361074257600b810154610100900460ff161580611b7c575060038101546001600160a01b0316155b1561074257600b8101805460ff191660011790558054611b9e9060089061210d565b5080546040516000805160206130c183398151915290611b2d90600190612d86565b611bc8611c07565b6000611bd2611a76565b805460ff1916600117815590507f62e78cea01bee320cd4e420270b5ea74000d11b0c9f74754ebdbfc544b05a2586118a63390565b611c0f6107e6565b156119635760405163d93c066560e01b815260040160405180910390fd5b6000611c37612307565b805490915060011901611c5d57604051633ee5aeb560e01b815260040160405180910390fd5b60029055565b6000611c7560408301602084016127b1565b6001600160a01b03161480611ca257506000611c9760608301604084016127b1565b6001600160a01b0316145b15611cc05760405163e6c4247b60e01b815260040160405180910390fd5b60056000611cd160208401846127b1565b6001600160a01b0316815260208101919091526040016000205415611d0957604051636e1ed6c560e11b815260040160405180910390fd5b6006611d186060830183612e47565b604051611d26929190612c31565b9081526020016040518091039020546000141580611d515750611d4f6110396060830183612e47565b155b15611d6f5760405163430f13b360e01b815260040160405180910390fd5b600254341015611d925760405163fe9ba5cd60e01b815260040160405180910390fd5b6000600360008154611da39061303f565b918290555060008181526004602081815260408084208454825163916e1c5760e01b8152925196975090956001600160a01b039091169363916e1c579383820193909291908290030181865afa158015611e01573d6000803e3d6000fd5b505050506040513d601f19601f82011682018060405250810190611e259190612c41565b8383559050611e3760208501856127b1565b6001830180546001600160a01b0319166001600160a01b0392909216919091179055611e6960408501602086016127b1565b6002830180546001600160a01b0319166001600160a01b0392909216919091179055611e9b60608501604086016127b1565b6004830180546001600160a01b0319166001600160a01b0392909216919091179055611eca6060850185612e47565b6005840191611eda919083612edc565b50611ee86080850185612e47565b6006840191611ef8919083612edc565b50611f0660a0850185612e47565b6007840191611f16919083612edc565b50611f2460c0850185612e47565b6008840191611f34919083612edc565b5043600983015534600a830155600b8201805460ff191660011790558260056000611f6260208801886127b1565b6001600160a01b03168152602081019190915260400160002055826006611f8c6060870187612e47565b604051611f9a929190612c31565b9081526040516020918190038201902091909155611fba908501856127b1565b6001600160a01b0316837f81fcb2f447f377b0f52d7c0ba6265f7369561e352e3279ac76480983f81f319c611ff560408801602089016127b1565b6120056060890160408a016127b1565b61201260608a018a612e47565b61201f60808c018c612e47565b61202c60a08e018e612e47565b8e8060c0019061203c9190612e47565b6040516120529a99989796959493929190612fc4565b60405180910390a3826000805160206130c183398151915260016040516120799190612d86565b60405180910390a26001546040516000916001600160a01b03169034908381818185875af1925050503d80600081146120ce576040519150601f19603f3d011682016040523d82523d6000602084013e6120d3565b606091505b50509050806120f5576040516312171d8360e31b815260040160405180910390fd5b5050505050565b6000612106612307565b6001905550565b6000610b1c838361232b565b60008181805b825181101561216a5782818151811061213a5761213a613058565b6020910101516001600160f81b031916600160fd1b14612162578161215e8161303f565b9250505b60010161211f565b506003109392505050565b7ff0c57e16840df040f15088dc2f81fe391c3923bec73e23a9662efc9c229c6a0090565b611963612414565b6121a9612414565b611963612439565b6121b9612414565b611963612441565b60608160000180548060200260200160405190810160405280929190818152602001828054801561221157602002820191906000526020600020905b8154815260200190600101908083116121fd575b50505050509050919050565b600082600001828154811061223457612234613058565b9060005260206000200154905092915050565b6122518282610a3b565b6107c55760405163e2517d3f60e01b81526001600160a01b0382166004820152602481018390526044016119e9565b6122886107e6565b61196357604051638dfc202b60e01b815260040160405180910390fd5b6122ae8261245e565b6040516001600160a01b038316907fbc7cd75a20ee27fd9adebab32041f755214dbc6bffa90cc0225b39da2e5c2d3b90600090a28051156122f35761071d82826124ba565b6107c5612530565b6000610b1c838361254f565b7f9b779b17422d0df92223018b32b4d1fa46e071723d6817e2486d003becc55f0090565b600081815260018301602052604081205480156117e557600061234f600183612c70565b855490915060009061236390600190612c70565b90508082146123c857600086600001828154811061238357612383613058565b90600052602060002001549050808760000184815481106123a6576123a6613058565b6000918252602080832090910192909255918252600188019052604090208390555b85548690806123d9576123d961306e565b600190038181906000526020600020016000905590558560010160008681526020019081526020016000206000905560019350505050610684565b61241c61259e565b61196357604051631afcd79f60e31b815260040160405180910390fd5b6120fc612414565b612449612414565b6000612453611a76565b805460ff1916905550565b806001600160a01b03163b60000361248b5780604051634c9c8ce360e01b81526004016119e991906126d1565b6000805160206130a183398151915280546001600160a01b0319166001600160a01b0392909216919091179055565b6060600080846001600160a01b0316846040516124d79190613084565b600060405180830381855af49150503d8060008114612512576040519150601f19603f3d011682016040523d82523d6000602084013e612517565b606091505b50915091506125278583836125b8565b95945050505050565b34156119635760405163b398979f60e01b815260040160405180910390fd5b600081815260018301602052604081205461259657508154600181810184556000848152602080822090930184905584548482528286019093526040902091909155610684565b506000610684565b60006125a8612175565b54600160401b900460ff16919050565b6060826125cd576125c88261260b565b610b1c565b81511580156125e457506001600160a01b0384163b155b156126045783604051639996b31560e01b81526004016119e991906126d1565b5092915050565b80511561261b5780518082602001fd5b604051630a12f52160e11b815260040160405180910390fd5b604051806101a001604052806000815260200160006001600160a01b0316815260200160006001600160a01b0316815260200160006001600160a01b0316815260200160006001600160a01b03168152602001606081526020016060815260200160608152602001606081526020016000815260200160008152602001600060038111156126c4576126c461282b565b8152600060209091015290565b6001600160a01b0391909116815260200190565b6000602082840312156126f757600080fd5b81356001600160e01b031981168114610b1c57600080fd5b6020808252825182820181905260009190848201906040850190845b818110156127475783518352928401929184019160010161272b565b50909695505050505050565b60006020828403121561276557600080fd5b5035919050565b6001600160a01b038116811461074257600080fd5b6000806040838503121561279457600080fd5b8235915060208301356127a68161276c565b809150509250929050565b6000602082840312156127c357600080fd5b8135610b1c8161276c565b6001600160a01b03169052565b60005b838110156127f65781810151838201526020016127de565b50506000910152565b600081518084526128178160208601602086016127db565b601f01601f19169290920160200192915050565b634e487b7160e01b600052602160045260246000fd5b6004811061285f57634e487b7160e01b600052602160045260246000fd5b9052565b60208152815160208201526000602083015161288260408401826127ce565b50604083015161289560608401826127ce565b5060608301516128a860808401826127ce565b5060808301516128bb60a08401826127ce565b5060a08301516101a08060c08501526128d86101c08501836127ff565b915060c0850151601f19808685030160e08701526128f684836127ff565b935060e0870151915061010081878603018188015261291585846127ff565b94508088015192505061012081878603018188015261293485846127ff565b9088015161014088810191909152880151610160808901919091528801519094509150610180905061296881870183612841565b90950151151593019290925250919050565b634e487b7160e01b600052604160045260246000fd5b60405160a081016001600160401b03811182821017156129b2576129b261297a565b60405290565b604051601f8201601f191681016001600160401b03811182821017156129e0576129e061297a565b604052919050565b60006001600160401b03831115612a0157612a0161297a565b612a14601f8401601f19166020016129b8565b9050828152838383011115612a2857600080fd5b828260208301376000602084830101529392505050565b60008060408385031215612a5257600080fd5b8235612a5d8161276c565b915060208301356001600160401b03811115612a7857600080fd5b8301601f81018513612a8957600080fd5b612a98858235602084016129e8565b9150509250929050565b801515811461074257600080fd5b60008060408385031215612ac357600080fd5b8235915060208301356127a681612aa2565b600060208284031215612ae757600080fd5b81356001600160401b03811115612afd57600080fd5b8201601f81018413612b0e57600080fd5b612b1d848235602084016129e8565b949350505050565b600060e08284031215612b3757600080fd5b50919050565b600060208284031215612b4f57600080fd5b81356001600160401b03811115612b6557600080fd5b612b1d84828501612b25565b60008060208385031215612b8457600080fd5b82356001600160401b0380821115612b9b57600080fd5b818501915085601f830112612baf57600080fd5b813581811115612bbe57600080fd5b866020828501011115612bd057600080fd5b60209290920196919550909350505050565b602081526000610b1c60208301846127ff565b60008060408385031215612c0857600080fd5b8235915060208301356001600160401b03811115612c2557600080fd5b612a9885828601612b25565b8183823760009101908152919050565b600060208284031215612c5357600080fd5b5051919050565b634e487b7160e01b600052601160045260246000fd5b8181038181111561068457610684612c5a565b60006020808385031215612c9657600080fd5b82516001600160401b0380821115612cad57600080fd5b9084019060a08287031215612cc157600080fd5b612cc9612990565b825181528383015184820152604083015160408201526060830151612ced81612aa2565b6060820152608083015182811115612d0457600080fd5b80840193505086601f840112612d1957600080fd5b825182811115612d2b57612d2b61297a565b8060051b9250612d3c8584016129b8565b8181529284018501928581019089851115612d5657600080fd5b948601945b84861015612d7457855182529486019490860190612d5b565b60808401525090979650505050505050565b602081016106848284612841565b600181811c90821680612da857607f821691505b602082108103612b3757634e487b7160e01b600052602260045260246000fd5b60008154612dd581612d94565b60018281168015612ded5760018114612e0257612e31565b60ff1984168752821515830287019450612e31565b8560005260208060002060005b85811015612e285781548a820152908401908201612e0f565b50505082870194505b5050505092915050565b6000610b1c8284612dc8565b6000808335601e19843603018112612e5e57600080fd5b8301803591506001600160401b03821115612e7857600080fd5b602001915036819003821315612e8d57600080fd5b9250929050565b601f82111561071d576000816000526020600020601f850160051c81016020861015612ebd5750805b601f850160051c820191505b8181101561136f57828155600101612ec9565b6001600160401b03831115612ef357612ef361297a565b612f0783612f018354612d94565b83612e94565b6000601f841160018114612f3b5760008515612f235750838201355b600019600387901b1c1916600186901b1783556120f5565b600083815260209020601f19861690835b82811015612f6c5786850135825560209485019460019092019101612f4c565b5086821015612f895760001960f88860031b161c19848701351681555b505060018560011b0183555050505050565b81835281816020850137506000828201602090810191909152601f909101601f19169091010190565b6001600160a01b038b811682528a16602082015260c060408201819052600090612ff19083018a8c612f9b565b828103606084015261300481898b612f9b565b90508281036080840152613019818789612f9b565b905082810360a084015261302e818587612f9b565b9d9c50505050505050505050505050565b60006001820161305157613051612c5a565b5060010190565b634e487b7160e01b600052603260045260246000fd5b634e487b7160e01b600052603160045260246000fd5b600082516130968184602087016127db565b919091019291505056fe360894a13ba1a3210667c828492db98dca3e2076cc3735a920a3ca505d382bbc77c6570970c38bcbef0f4075021f00b93c11bf5ecdb11f0a03db50dcbf584ad8339759585899103d2ace64958e37e18ccb0504652c81d4a1b8aa80fe2126ab95a26469706673582212201c681720ebaa9c829cc9d97f479dc4b9643a67ad01d5dcbebb7d27cfb68bcc5764736f6c63430008180033",
  "devdoc": {
    "errors": {
      "AccessControlBadConfirmation()": [
        {
          "details": "The caller of a function is not the expected one. NOTE: Don't confuse with {AccessControlUnauthorizedAccount}."
        }
      ],
      "AccessControlUnauthorizedAccount(address,bytes32)": [
        {
          "details": "The `account` is missing a role."
        }
      ],
      "AddressEmptyCode(address)": [
        {
          "details": "There's no code at `target` (it is not a contract)."
        }
      ],
      "ERC1967InvalidImplementation(address)": [
        {
          "details": "The `implementation` of the proxy is invalid."
        }
      ],
      "ERC1967NonPayable()": [
        {
          "details": "An upgrade function sees `msg.value > 0` that may be lost."
        }
      ],
      "EnforcedPause()": [
        {
          "details": "The operation failed because the contract is paused."
        }
      ],
      "ExpectedPause()": [
        {
          "details": "The operation failed because the contract is not paused."
        }
      ],
      "FailedInnerCall()": [
        {
          "details": "A call to an address target failed. The target may have reverted."
        }
      ],
      "InvalidInitialization()": [
        {
          "details": "The contract is already initialized."
        }
      ],
      "NotInitializing()": [
        {
          "details": "The contract is not initializing."
        }
      ],
      "ReentrancyGuardReentrantCall()": [
        {
          "details": "Unauthorized reentrant call."
        }
      ],
      "UUPSUnauthorizedCallContext()": [
        {
          "details": "The call is from an unauthorized context."
        }
      ],
      "UUPSUnsupportedProxiableUUID(bytes32)": [
        {
          "details": "The storage `slot` is unsupported as a UUID."
        }
      ]
    },
    "events": {
      "Initialized(uint64)": {
        "details": "Triggered when the contract has been initialized or reinitialized."
      },
      "Paused(address)": {
        "details": "Emitted when the pause is triggered by `account`."
      },
      "RoleAdminChanged(bytes32,bytes32,bytes32)": {
        "details": "Emitted when `newAdminRole` is set as ``role``'s admin role, replacing `previousAdminRole` `DEFAULT_ADMIN_ROLE` is the starting admin for all roles, despite {RoleAdminChanged} not being emitted signaling this."
      },
      "RoleGranted(bytes32,address,address)": {
        "details": "Emitted when `account` is granted `role`. `sender` is the account that originated the contract call, an admin role bearer except when using {AccessControl-_setupRole}."
      },
      "RoleRevoked(bytes32,address,address)": {
        "details": "Emitted when `account` is revoked `role`. `sender` is the account that originated the contract call:   - if using `revokeRole`, it is the admin role bearer   - if using `renounceRole`, it is the role bearer (i.e. `account`)"
      },
      "Unpaused(address)": {
        "details": "Emitted when the pause is lifted by `account`."
      },
      "Upgraded(address)": {
        "details": "Emitted when the implementation is upgraded."
      }
    },
    "kind": "dev",
    "methods": {
      "constructor": {
        "custom:oz-upgrades-unsafe-allow": "constructor"
      },
      "getRoleAdmin(bytes32)": {
        "details": "Returns the admin role that controls `role`. See {grantRole} and {revokeRole}. To change a role's admin, use {_setRoleAdmin}."
      },
      "grantRole(bytes32,address)": {
        "details": "Grants `role` to `account`. If `account` had not been already granted `role`, emits a {RoleGranted} event. Requirements: - the caller must have ``role``'s admin role. May emit a {RoleGranted} event."
      },
      "hasRole(bytes32,address)": {
        "details": "Returns `true` if `account` has been granted `role`."
      },
      "paused()": {
        "details": "Returns true if the contract is paused, and false otherwise."
      },
      "proxiableUUID()": {
        "details": "Implementation of the ERC1822 {proxiableUUID} function. This returns the storage slot used by the implementation. It is used to validate the implementation's compatibility when performing an upgrade. IMPORTANT: A proxy pointing at a proxiable contract should not be considered proxiable itself, because this risks bricking a proxy that upgrades to it, by delegating to itself until out of gas. Thus it is critical that this function revert if invoked through a proxy. This is guaranteed by the `notDelegated` modifier."
      },
      "renounceRole(bytes32,address)": {
        "details": "Revokes `role` from the calling account. Roles are often managed via {grantRole} and {revokeRole}: this function's purpose is to provide a mechanism for accounts to lose their privileges if they are compromised (such as when a trusted device is misplaced). If the calling account had been revoked `role`, emits a {RoleRevoked} event. Requirements: - the caller must be `callerConfirmation`. May emit a {RoleRevoked} event."
      },
      "revokeRole(bytes32,address)": {
        "details": "Revokes `role` from `account`. If `account` had been granted `role`, emits a {RoleRevoked} event. Requirements: - the caller must have ``role``'s admin role. May emit a {RoleRevoked} event."
      },
      "supportsInterface(bytes4)": {
        "details": "See {IERC165-supportsInterface}."
      },
      "updateDlp(uint256,(address,address,address,string,string,string,string))": {
        "details": "Only DLP owner can update"
      },
      "upgradeToAndCall(address,bytes)": {
        "custom:oz-upgrades-unsafe-allow-reachable": "delegatecall",
        "details": "Upgrade the implementation of the proxy to `newImplementation`, and subsequently execute the function call encoded in `data`. Calls {_authorizeUpgrade}. Emits an {Upgraded} event."
      }
    },
    "version": 1
  },
  "userdoc": {
    "kind": "user",
    "methods": {
      "updateDlp(uint256,(address,address,address,string,string,string,string))": {
        "notice": "Updates DLP information"
      }
    },
    "version": 1
  },
  "storageLayout": {
    "storage": [
      {
        "astId": 6779,
        "contract": "contracts/dlpRegistry/DLPRegistryImplementation.sol:DLPRegistryImplementation",
        "label": "vanaEpoch",
        "offset": 0,
        "slot": "0",
        "type": "t_contract(IVanaEpoch)7706"
      },
      {
        "astId": 6783,
        "contract": "contracts/dlpRegistry/DLPRegistryImplementation.sol:DLPRegistryImplementation",
        "label": "treasury",
        "offset": 0,
        "slot": "1",
        "type": "t_contract(ITreasury)7069"
      },
      {
        "astId": 6786,
        "contract": "contracts/dlpRegistry/DLPRegistryImplementation.sol:DLPRegistryImplementation",
        "label": "dlpRegistrationDepositAmount",
        "offset": 0,
        "slot": "2",
        "type": "t_uint256"
      },
      {
        "astId": 6789,
        "contract": "contracts/dlpRegistry/DLPRegistryImplementation.sol:DLPRegistryImplementation",
        "label": "dlpsCount",
        "offset": 0,
        "slot": "3",
        "type": "t_uint256"
      },
      {
        "astId": 6794,
        "contract": "contracts/dlpRegistry/DLPRegistryImplementation.sol:DLPRegistryImplementation",
        "label": "_dlps",
        "offset": 0,
        "slot": "4",
        "type": "t_mapping(t_uint256,t_struct(Dlp)6852_storage)"
      },
      {
        "astId": 6799,
        "contract": "contracts/dlpRegistry/DLPRegistryImplementation.sol:DLPRegistryImplementation",
        "label": "dlpIds",
        "offset": 0,
        "slot": "5",
        "type": "t_mapping(t_address,t_uint256)"
      },
      {
        "astId": 6804,
        "contract": "contracts/dlpRegistry/DLPRegistryImplementation.sol:DLPRegistryImplementation",
        "label": "dlpNameToId",
        "offset": 0,
        "slot": "6",
        "type": "t_mapping(t_string_memory_ptr,t_uint256)"
      },
      {
        "astId": 6807,
        "contract": "contracts/dlpRegistry/DLPRegistryImplementation.sol:DLPRegistryImplementation",
        "label": "eligibleDlpsLimit",
        "offset": 0,
        "slot": "7",
        "type": "t_uint256"
      },
      {
        "astId": 6810,
        "contract": "contracts/dlpRegistry/DLPRegistryImplementation.sol:DLPRegistryImplementation",
        "label": "_eligibleDlpsList",
        "offset": 0,
        "slot": "8",
        "type": "t_struct(UintSet)5079_storage"
      }
    ],
    "types": {
      "t_address": {
        "encoding": "inplace",
        "label": "address",
        "numberOfBytes": "20"
      },
      "t_address_payable": {
        "encoding": "inplace",
        "label": "address payable",
        "numberOfBytes": "20"
      },
      "t_array(t_bytes32)dyn_storage": {
        "base": "t_bytes32",
        "encoding": "dynamic_array",
        "label": "bytes32[]",
        "numberOfBytes": "32"
      },
      "t_bool": {
        "encoding": "inplace",
        "label": "bool",
        "numberOfBytes": "1"
      },
      "t_bytes32": {
        "encoding": "inplace",
        "label": "bytes32",
        "numberOfBytes": "32"
      },
      "t_contract(ITreasury)7069": {
        "encoding": "inplace",
        "label": "contract ITreasury",
        "numberOfBytes": "20"
      },
      "t_contract(IVanaEpoch)7706": {
        "encoding": "inplace",
        "label": "contract IVanaEpoch",
        "numberOfBytes": "20"
      },
      "t_enum(DlpStatus)6824": {
        "encoding": "inplace",
        "label": "enum IDLPRegistry.DlpStatus",
        "numberOfBytes": "1"
      },
      "t_mapping(t_address,t_uint256)": {
        "encoding": "mapping",
        "key": "t_address",
        "label": "mapping(address => uint256)",
        "numberOfBytes": "32",
        "value": "t_uint256"
      },
      "t_mapping(t_bytes32,t_uint256)": {
        "encoding": "mapping",
        "key": "t_bytes32",
        "label": "mapping(bytes32 => uint256)",
        "numberOfBytes": "32",
        "value": "t_uint256"
      },
      "t_mapping(t_string_memory_ptr,t_uint256)": {
        "encoding": "mapping",
        "key": "t_string_memory_ptr",
        "label": "mapping(string => uint256)",
        "numberOfBytes": "32",
        "value": "t_uint256"
      },
      "t_mapping(t_uint256,t_struct(Dlp)6852_storage)": {
        "encoding": "mapping",
        "key": "t_uint256",
        "label": "mapping(uint256 => struct IDLPRegistry.Dlp)",
        "numberOfBytes": "32",
        "value": "t_struct(Dlp)6852_storage"
      },
      "t_string_memory_ptr": {
        "encoding": "bytes",
        "label": "string",
        "numberOfBytes": "32"
      },
      "t_string_storage": {
        "encoding": "bytes",
        "label": "string",
        "numberOfBytes": "32"
      },
      "t_struct(Dlp)6852_storage": {
        "encoding": "inplace",
        "label": "struct IDLPRegistry.Dlp",
        "members": [
          {
            "astId": 6826,
            "contract": "contracts/dlpRegistry/DLPRegistryImplementation.sol:DLPRegistryImplementation",
            "label": "id",
            "offset": 0,
            "slot": "0",
            "type": "t_uint256"
          },
          {
            "astId": 6828,
            "contract": "contracts/dlpRegistry/DLPRegistryImplementation.sol:DLPRegistryImplementation",
            "label": "dlpAddress",
            "offset": 0,
            "slot": "1",
            "type": "t_address"
          },
          {
            "astId": 6830,
            "contract": "contracts/dlpRegistry/DLPRegistryImplementation.sol:DLPRegistryImplementation",
            "label": "ownerAddress",
            "offset": 0,
            "slot": "2",
            "type": "t_address"
          },
          {
            "astId": 6832,
            "contract": "contracts/dlpRegistry/DLPRegistryImplementation.sol:DLPRegistryImplementation",
            "label": "tokenAddress",
            "offset": 0,
            "slot": "3",
            "type": "t_address"
          },
          {
            "astId": 6834,
            "contract": "contracts/dlpRegistry/DLPRegistryImplementation.sol:DLPRegistryImplementation",
            "label": "treasuryAddress",
            "offset": 0,
            "slot": "4",
            "type": "t_address_payable"
          },
          {
            "astId": 6836,
            "contract": "contracts/dlpRegistry/DLPRegistryImplementation.sol:DLPRegistryImplementation",
            "label": "name",
            "offset": 0,
            "slot": "5",
            "type": "t_string_storage"
          },
          {
            "astId": 6838,
            "contract": "contracts/dlpRegistry/DLPRegistryImplementation.sol:DLPRegistryImplementation",
            "label": "iconUrl",
            "offset": 0,
            "slot": "6",
            "type": "t_string_storage"
          },
          {
            "astId": 6840,
            "contract": "contracts/dlpRegistry/DLPRegistryImplementation.sol:DLPRegistryImplementation",
            "label": "website",
            "offset": 0,
            "slot": "7",
            "type": "t_string_storage"
          },
          {
            "astId": 6842,
            "contract": "contracts/dlpRegistry/DLPRegistryImplementation.sol:DLPRegistryImplementation",
            "label": "metadata",
            "offset": 0,
            "slot": "8",
            "type": "t_string_storage"
          },
          {
            "astId": 6844,
            "contract": "contracts/dlpRegistry/DLPRegistryImplementation.sol:DLPRegistryImplementation",
            "label": "registrationBlockNumber",
            "offset": 0,
            "slot": "9",
            "type": "t_uint256"
          },
          {
            "astId": 6846,
            "contract": "contracts/dlpRegistry/DLPRegistryImplementation.sol:DLPRegistryImplementation",
            "label": "depositAmount",
            "offset": 0,
            "slot": "10",
            "type": "t_uint256"
          },
          {
            "astId": 6849,
            "contract": "contracts/dlpRegistry/DLPRegistryImplementation.sol:DLPRegistryImplementation",
            "label": "status",
            "offset": 0,
            "slot": "11",
            "type": "t_enum(DlpStatus)6824"
          },
          {
            "astId": 6851,
            "contract": "contracts/dlpRegistry/DLPRegistryImplementation.sol:DLPRegistryImplementation",
            "label": "isVerified",
            "offset": 1,
            "slot": "11",
            "type": "t_bool"
          }
        ],
        "numberOfBytes": "384"
      },
      "t_struct(Set)4607_storage": {
        "encoding": "inplace",
        "label": "struct EnumerableSet.Set",
        "members": [
          {
            "astId": 4602,
            "contract": "contracts/dlpRegistry/DLPRegistryImplementation.sol:DLPRegistryImplementation",
            "label": "_values",
            "offset": 0,
            "slot": "0",
            "type": "t_array(t_bytes32)dyn_storage"
          },
          {
            "astId": 4606,
            "contract": "contracts/dlpRegistry/DLPRegistryImplementation.sol:DLPRegistryImplementation",
            "label": "_positions",
            "offset": 0,
            "slot": "1",
            "type": "t_mapping(t_bytes32,t_uint256)"
          }
        ],
        "numberOfBytes": "64"
      },
      "t_struct(UintSet)5079_storage": {
        "encoding": "inplace",
        "label": "struct EnumerableSet.UintSet",
        "members": [
          {
            "astId": 5078,
            "contract": "contracts/dlpRegistry/DLPRegistryImplementation.sol:DLPRegistryImplementation",
            "label": "_inner",
            "offset": 0,
            "slot": "0",
            "type": "t_struct(Set)4607_storage"
          }
        ],
        "numberOfBytes": "64"
      },
      "t_uint256": {
        "encoding": "inplace",
        "label": "uint256",
        "numberOfBytes": "32"
      }
    }
  }
}